{
 "_format": "hh-sol-artifact-1",
 "contractName": "Donar",
 "sourceName": "contracts/Donar.sol",
 "abi": [
  {
   "inputs": [
    {
     "internalType": "uint256",
     "name": "acceptedNgoRegisterationFee",
     "type": "uint256"
    },
    {
     "internalType": "string",
     "name": "_name",
     "type": "string"
    },
    {
     "internalType": "string",
     "name": "_symbol",
     "type": "string"
    }
   ],
   "stateMutability": "nonpayable",
   "type": "constructor"
  },
  {
   "inputs": [],
   "name": "Donar__CannotDonateToYourSelf",
   "type": "error"
  },
  {
   "inputs": [],
   "name": "Donar__FieldCannotBeEmpty",
   "type": "error"
  },
  {
   "inputs": [],
   "name": "Donar__InsuffientsFunds",
   "type": "error"
  },
  {
   "inputs": [],
   "name": "Donar__InvalidAddress",
   "type": "error"
  },
  {
   "inputs": [],
   "name": "Donar__InvalidAmount",
   "type": "error"
  },
  {
   "inputs": [],
   "name": "Donar__NeedMoreMaticSent",
   "type": "error"
  },
  {
   "inputs": [],
   "name": "Donar__NgoAlreadyRegistered",
   "type": "error"
  },
  {
   "inputs": [],
   "name": "Donar__NgoCannotBeDonor",
   "type": "error"
  },
  {
   "inputs": [],
   "name": "Donar__NgoHaveNotRegistered",
   "type": "error"
  },
  {
   "inputs": [],
   "name": "Donar__onlyOwner",
   "type": "error"
  },
  {
   "anonymous": false,
   "inputs": [
    {
     "indexed": true,
     "internalType": "address",
     "name": "owner",
     "type": "address"
    },
    {
     "indexed": true,
     "internalType": "address",
     "name": "spender",
     "type": "address"
    },
    {
     "indexed": false,
     "internalType": "uint256",
     "name": "value",
     "type": "uint256"
    }
   ],
   "name": "Approval",
   "type": "event"
  },
  {
   "anonymous": false,
   "inputs": [
    {
     "indexed": true,
     "internalType": "address",
     "name": "donarCompany",
     "type": "address"
    }
   ],
   "name": "DonarProfiWithDrawn",
   "type": "event"
  },
  {
   "anonymous": false,
   "inputs": [
    {
     "indexed": true,
     "internalType": "address",
     "name": "owner",
     "type": "address"
    },
    {
     "indexed": true,
     "internalType": "address",
     "name": "ngo",
     "type": "address"
    },
    {
     "indexed": false,
     "internalType": "uint256",
     "name": "profitMade",
     "type": "uint256"
    },
    {
     "indexed": false,
     "internalType": "uint256",
     "name": "amountDonatedToNgo",
     "type": "uint256"
    }
   ],
   "name": "DonationMade",
   "type": "event"
  },
  {
   "anonymous": false,
   "inputs": [
    {
     "indexed": true,
     "internalType": "address",
     "name": "ngo",
     "type": "address"
    },
    {
     "indexed": false,
     "internalType": "uint256",
     "name": "amount",
     "type": "uint256"
    },
    {
     "indexed": true,
     "internalType": "address",
     "name": "to",
     "type": "address"
    }
   ],
   "name": "NgoDonatedToHelpMe",
   "type": "event"
  },
  {
   "anonymous": false,
   "inputs": [
    {
     "indexed": true,
     "internalType": "address",
     "name": "from",
     "type": "address"
    },
    {
     "indexed": true,
     "internalType": "address",
     "name": "to",
     "type": "address"
    },
    {
     "indexed": false,
     "internalType": "uint256",
     "name": "value",
     "type": "uint256"
    }
   ],
   "name": "Transfer",
   "type": "event"
  },
  {
   "inputs": [],
   "name": "HowManyDonorExist",
   "outputs": [
    {
     "internalType": "uint256",
     "name": "",
     "type": "uint256"
    }
   ],
   "stateMutability": "view",
   "type": "function"
  },
  {
   "inputs": [],
   "name": "HowManyNgoExist",
   "outputs": [
    {
     "internalType": "uint256",
     "name": "",
     "type": "uint256"
    }
   ],
   "stateMutability": "view",
   "type": "function"
  },
  {
   "inputs": [
    {
     "internalType": "address",
     "name": "_ngo",
     "type": "address"
    },
    {
     "internalType": "uint256",
     "name": "amount",
     "type": "uint256"
    },
    {
     "internalType": "address",
     "name": "_to",
     "type": "address"
    }
   ],
   "name": "NgoSendToHelpNeeded",
   "outputs": [],
   "stateMutability": "nonpayable",
   "type": "function"
  },
  {
   "inputs": [
    {
     "internalType": "address",
     "name": "",
     "type": "address"
    }
   ],
   "name": "_ngoVerificationStatus",
   "outputs": [
    {
     "internalType": "bool",
     "name": "",
     "type": "bool"
    }
   ],
   "stateMutability": "view",
   "type": "function"
  },
  {
   "inputs": [
    {
     "internalType": "address",
     "name": "_ngo",
     "type": "address"
    }
   ],
   "name": "allowDonationToNgo",
   "outputs": [
    {
     "internalType": "bool",
     "name": "",
     "type": "bool"
    }
   ],
   "stateMutability": "view",
   "type": "function"
  },
  {
   "inputs": [
    {
     "internalType": "address",
     "name": "owner",
     "type": "address"
    },
    {
     "internalType": "address",
     "name": "spender",
     "type": "address"
    }
   ],
   "name": "allowance",
   "outputs": [
    {
     "internalType": "uint256",
     "name": "",
     "type": "uint256"
    }
   ],
   "stateMutability": "view",
   "type": "function"
  },
  {
   "inputs": [
    {
     "internalType": "address",
     "name": "spender",
     "type": "address"
    },
    {
     "internalType": "uint256",
     "name": "amount",
     "type": "uint256"
    }
   ],
   "name": "approve",
   "outputs": [
    {
     "internalType": "bool",
     "name": "",
     "type": "bool"
    }
   ],
   "stateMutability": "nonpayable",
   "type": "function"
  },
  {
   "inputs": [
    {
     "internalType": "address",
     "name": "account",
     "type": "address"
    }
   ],
   "name": "balanceOf",
   "outputs": [
    {
     "internalType": "uint256",
     "name": "",
     "type": "uint256"
    }
   ],
   "stateMutability": "view",
   "type": "function"
  },
  {
   "inputs": [
    {
     "internalType": "address",
     "name": "owner",
     "type": "address"
    }
   ],
   "name": "checkDonorProfit",
   "outputs": [
    {
     "internalType": "uint256",
     "name": "",
     "type": "uint256"
    }
   ],
   "stateMutability": "view",
   "type": "function"
  },
  {
   "inputs": [
    {
     "internalType": "address",
     "name": "owner",
     "type": "address"
    }
   ],
   "name": "checkIfIhaveDonatedBefore",
   "outputs": [
    {
     "internalType": "bool",
     "name": "",
     "type": "bool"
    }
   ],
   "stateMutability": "view",
   "type": "function"
  },
  {
   "inputs": [],
   "name": "decimals",
   "outputs": [
    {
     "internalType": "uint8",
     "name": "",
     "type": "uint8"
    }
   ],
   "stateMutability": "view",
   "type": "function"
  },
  {
   "inputs": [
    {
     "internalType": "address",
     "name": "spender",
     "type": "address"
    },
    {
     "internalType": "uint256",
     "name": "subtractedValue",
     "type": "uint256"
    }
   ],
   "name": "decreaseAllowance",
   "outputs": [
    {
     "internalType": "bool",
     "name": "",
     "type": "bool"
    }
   ],
   "stateMutability": "nonpayable",
   "type": "function"
  },
  {
   "inputs": [
    {
     "internalType": "address",
     "name": "_toNgo",
     "type": "address"
    }
   ],
   "name": "donate",
   "outputs": [],
   "stateMutability": "payable",
   "type": "function"
  },
  {
   "inputs": [
    {
     "internalType": "address",
     "name": "owner",
     "type": "address"
    }
   ],
   "name": "getAmountDonarHasDonatedPlusProfit",
   "outputs": [
    {
     "internalType": "uint256",
     "name": "",
     "type": "uint256"
    }
   ],
   "stateMutability": "view",
   "type": "function"
  },
  {
   "inputs": [
    {
     "internalType": "address",
     "name": "owner",
     "type": "address"
    }
   ],
   "name": "getBalance",
   "outputs": [
    {
     "internalType": "uint256",
     "name": "",
     "type": "uint256"
    }
   ],
   "stateMutability": "view",
   "type": "function"
  },
  {
   "inputs": [],
   "name": "getContractBalance",
   "outputs": [
    {
     "internalType": "uint256",
     "name": "",
     "type": "uint256"
    }
   ],
   "stateMutability": "view",
   "type": "function"
  },
  {
   "inputs": [],
   "name": "getDonarOwner",
   "outputs": [
    {
     "internalType": "address",
     "name": "",
     "type": "address"
    }
   ],
   "stateMutability": "view",
   "type": "function"
  },
  {
   "inputs": [],
   "name": "getDonarTotalProfit",
   "outputs": [
    {
     "internalType": "uint256",
     "name": "",
     "type": "uint256"
    }
   ],
   "stateMutability": "view",
   "type": "function"
  },
  {
   "inputs": [
    {
     "internalType": "uint256",
     "name": "_Id",
     "type": "uint256"
    }
   ],
   "name": "getDonorAddress",
   "outputs": [
    {
     "internalType": "address",
     "name": "",
     "type": "address"
    }
   ],
   "stateMutability": "view",
   "type": "function"
  },
  {
   "inputs": [
    {
     "internalType": "address",
     "name": "owner",
     "type": "address"
    }
   ],
   "name": "getDonorId",
   "outputs": [
    {
     "internalType": "uint256",
     "name": "",
     "type": "uint256"
    }
   ],
   "stateMutability": "view",
   "type": "function"
  },
  {
   "inputs": [],
   "name": "getDonorLeastFee",
   "outputs": [
    {
     "internalType": "uint256",
     "name": "",
     "type": "uint256"
    }
   ],
   "stateMutability": "view",
   "type": "function"
  },
  {
   "inputs": [
    {
     "internalType": "uint256",
     "name": "_i",
     "type": "uint256"
    }
   ],
   "name": "getDonorPositionInTheArray",
   "outputs": [
    {
     "internalType": "address",
     "name": "",
     "type": "address"
    }
   ],
   "stateMutability": "view",
   "type": "function"
  },
  {
   "inputs": [
    {
     "internalType": "address",
     "name": "owner",
     "type": "address"
    }
   ],
   "name": "getDonorRecentTransaction",
   "outputs": [
    {
     "components": [
      {
       "internalType": "address",
       "name": "donor",
       "type": "address"
      },
      {
       "internalType": "uint256",
       "name": "amountDonated",
       "type": "uint256"
      },
      {
       "internalType": "uint256",
       "name": "profitGained",
       "type": "uint256"
      }
     ],
     "internalType": "struct Donar.donorDetails",
     "name": "",
     "type": "tuple"
    }
   ],
   "stateMutability": "view",
   "type": "function"
  },
  {
   "inputs": [
    {
     "internalType": "address",
     "name": "owner",
     "type": "address"
    }
   ],
   "name": "getDonorToAmountDonated",
   "outputs": [
    {
     "internalType": "uint256",
     "name": "",
     "type": "uint256"
    }
   ],
   "stateMutability": "view",
   "type": "function"
  },
  {
   "inputs": [],
   "name": "getDonorsList",
   "outputs": [
    {
     "internalType": "address[]",
     "name": "",
     "type": "address[]"
    }
   ],
   "stateMutability": "view",
   "type": "function"
  },
  {
   "inputs": [
    {
     "internalType": "address",
     "name": "owner",
     "type": "address"
    }
   ],
   "name": "getHowManyDonarTokensYouHave",
   "outputs": [
    {
     "internalType": "uint256",
     "name": "",
     "type": "uint256"
    }
   ],
   "stateMutability": "view",
   "type": "function"
  },
  {
   "inputs": [
    {
     "internalType": "address",
     "name": "_address",
     "type": "address"
    }
   ],
   "name": "getNgoDetails",
   "outputs": [
    {
     "internalType": "address",
     "name": "",
     "type": "address"
    },
    {
     "internalType": "string",
     "name": "",
     "type": "string"
    },
    {
     "internalType": "string",
     "name": "",
     "type": "string"
    },
    {
     "internalType": "uint256",
     "name": "",
     "type": "uint256"
    }
   ],
   "stateMutability": "view",
   "type": "function"
  },
  {
   "inputs": [],
   "name": "getNgoList",
   "outputs": [
    {
     "internalType": "address[]",
     "name": "",
     "type": "address[]"
    }
   ],
   "stateMutability": "view",
   "type": "function"
  },
  {
   "inputs": [
    {
     "internalType": "uint256",
     "name": "_i",
     "type": "uint256"
    }
   ],
   "name": "getNgoPositionInTheArray",
   "outputs": [
    {
     "internalType": "address",
     "name": "",
     "type": "address"
    }
   ],
   "stateMutability": "view",
   "type": "function"
  },
  {
   "inputs": [
    {
     "internalType": "address",
     "name": "owner",
     "type": "address"
    }
   ],
   "name": "getNgoVerificationStatus",
   "outputs": [
    {
     "internalType": "bool",
     "name": "",
     "type": "bool"
    }
   ],
   "stateMutability": "view",
   "type": "function"
  },
  {
   "inputs": [],
   "name": "getNumberOfDonationSentToNgo",
   "outputs": [
    {
     "internalType": "uint256",
     "name": "",
     "type": "uint256"
    }
   ],
   "stateMutability": "view",
   "type": "function"
  },
  {
   "inputs": [],
   "name": "getNumberOfDonationsByDonorMade",
   "outputs": [
    {
     "internalType": "uint256",
     "name": "",
     "type": "uint256"
    }
   ],
   "stateMutability": "view",
   "type": "function"
  },
  {
   "inputs": [],
   "name": "getTransactionRecordsOfDonor",
   "outputs": [
    {
     "components": [
      {
       "internalType": "address",
       "name": "donor",
       "type": "address"
      },
      {
       "internalType": "uint256",
       "name": "amountDonated",
       "type": "uint256"
      },
      {
       "internalType": "uint256",
       "name": "profitGained",
       "type": "uint256"
      }
     ],
     "internalType": "struct Donar.donorDetails[]",
     "name": "",
     "type": "tuple[]"
    }
   ],
   "stateMutability": "view",
   "type": "function"
  },
  {
   "inputs": [
    {
     "internalType": "address",
     "name": "spender",
     "type": "address"
    },
    {
     "internalType": "uint256",
     "name": "addedValue",
     "type": "uint256"
    }
   ],
   "name": "increaseAllowance",
   "outputs": [
    {
     "internalType": "bool",
     "name": "",
     "type": "bool"
    }
   ],
   "stateMutability": "nonpayable",
   "type": "function"
  },
  {
   "inputs": [],
   "name": "name",
   "outputs": [
    {
     "internalType": "string",
     "name": "",
     "type": "string"
    }
   ],
   "stateMutability": "view",
   "type": "function"
  },
  {
   "inputs": [
    {
     "internalType": "address",
     "name": "_address",
     "type": "address"
    },
    {
     "internalType": "string",
     "name": "_name",
     "type": "string"
    },
    {
     "internalType": "string",
     "name": "_description",
     "type": "string"
    }
   ],
   "name": "registerNgo",
   "outputs": [],
   "stateMutability": "nonpayable",
   "type": "function"
  },
  {
   "inputs": [
    {
     "internalType": "uint256",
     "name": "",
     "type": "uint256"
    }
   ],
   "name": "s_CheckList",
   "outputs": [
    {
     "internalType": "address",
     "name": "",
     "type": "address"
    }
   ],
   "stateMutability": "view",
   "type": "function"
  },
  {
   "inputs": [],
   "name": "symbol",
   "outputs": [
    {
     "internalType": "string",
     "name": "",
     "type": "string"
    }
   ],
   "stateMutability": "view",
   "type": "function"
  },
  {
   "inputs": [],
   "name": "totalSupply",
   "outputs": [
    {
     "internalType": "uint256",
     "name": "",
     "type": "uint256"
    }
   ],
   "stateMutability": "view",
   "type": "function"
  },
  {
   "inputs": [
    {
     "internalType": "address",
     "name": "to",
     "type": "address"
    },
    {
     "internalType": "uint256",
     "name": "amount",
     "type": "uint256"
    }
   ],
   "name": "transfer",
   "outputs": [
    {
     "internalType": "bool",
     "name": "",
     "type": "bool"
    }
   ],
   "stateMutability": "nonpayable",
   "type": "function"
  },
  {
   "inputs": [
    {
     "internalType": "address",
     "name": "from",
     "type": "address"
    },
    {
     "internalType": "address",
     "name": "to",
     "type": "address"
    },
    {
     "internalType": "uint256",
     "name": "amount",
     "type": "uint256"
    }
   ],
   "name": "transferFrom",
   "outputs": [
    {
     "internalType": "bool",
     "name": "",
     "type": "bool"
    }
   ],
   "stateMutability": "nonpayable",
   "type": "function"
  },
  {
   "inputs": [
    {
     "internalType": "uint256",
     "name": "amount",
     "type": "uint256"
    }
   ],
   "name": "withdrawDonarProfitByCompany",
   "outputs": [],
   "stateMutability": "nonpayable",
   "type": "function"
  }
 ],
 "bytecode": "0x60c06040523480156200001157600080fd5b50604051620052f1380380620052f183398181016040528101906200003791906200033a565b8181816003908051906020019062000051929190620000b2565b5080600490805190602001906200006a929190620000b2565b50505082608081815250503373ffffffffffffffffffffffffffffffffffffffff1660a08173ffffffffffffffffffffffffffffffffffffffff168152505050505062000439565b828054620000c09062000403565b90600052602060002090601f016020900481019282620000e4576000855562000130565b82601f10620000ff57805160ff191683800117855562000130565b8280016001018555821562000130579182015b828111156200012f57825182559160200191906001019062000112565b5b5090506200013f919062000143565b5090565b5b808211156200015e57600081600090555060010162000144565b5090565b6000604051905090565b600080fd5b600080fd5b6000819050919050565b6200018b8162000176565b81146200019757600080fd5b50565b600081519050620001ab8162000180565b92915050565b600080fd5b600080fd5b6000601f19601f8301169050919050565b7f4e487b7100000000000000000000000000000000000000000000000000000000600052604160045260246000fd5b6200020682620001bb565b810181811067ffffffffffffffff82111715620002285762000227620001cc565b5b80604052505050565b60006200023d62000162565b90506200024b8282620001fb565b919050565b600067ffffffffffffffff8211156200026e576200026d620001cc565b5b6200027982620001bb565b9050602081019050919050565b60005b83811015620002a657808201518184015260208101905062000289565b83811115620002b6576000848401525b50505050565b6000620002d3620002cd8462000250565b62000231565b905082815260208101848484011115620002f257620002f1620001b6565b5b620002ff84828562000286565b509392505050565b600082601f8301126200031f576200031e620001b1565b5b815162000331848260208601620002bc565b91505092915050565b6000806000606084860312156200035657620003556200016c565b5b600062000366868287016200019a565b935050602084015167ffffffffffffffff8111156200038a576200038962000171565b5b620003988682870162000307565b925050604084015167ffffffffffffffff811115620003bc57620003bb62000171565b5b620003ca8682870162000307565b9150509250925092565b7f4e487b7100000000000000000000000000000000000000000000000000000000600052602260045260246000fd5b600060028204905060018216806200041c57607f821691505b60208210811415620004335762000432620003d4565b5b50919050565b60805160a051614e29620004c86000396000818161154401528181611cdb015281816120a60152818161233b015281816124d501528181612543015281816125ca0152818161299101528181612a5d01528181612ad701528181612ba101528181612c2101528181612cb301528181612d750152613375015260008181610e1901526118780152614e296000f3fe6080604052600436106102505760003560e01c806376be108511610139578063a9059cbb116100b6578063bda736a51161007a578063bda736a5146109cb578063bdfda768146109f6578063c5a2a23414610a1f578063cfd1bcea14610a4a578063dd62ed3e14610a75578063f8b2cb4f14610ab257610250565b8063a9059cbb146108d2578063ad3c03c51461090f578063b7b15afc14610938578063ba872e6214610963578063bd9878a3146109a057610250565b806395d89b41116100fd57806395d89b41146107b3578063a0d3b8bc146107de578063a141dc951461081b578063a457c2d714610858578063a69920651461089557610250565b806376be1085146106945780637dfa0305146106d157806386fa1369146106fc5780638cf398b81461073957806392c310121461077657610250565b80633299d3fb116101d257806345d1a4721161019657806345d1a4721461055c5780634fefba701461058757806350511f87146105c45780635f6d5e64146105ef5780636f9fb98a1461062c57806370a082311461065757610250565b80633299d3fb1461044e57806335406acf1461047957806336d0396e146104b657806339509351146104f6578063419f74ad1461053357610250565b806323b872dd1161021957806323b872dd146103415780632fab21451461037e578063309f9fda146103bb57806330afae6a146103f8578063313ce5671461042357610250565b8062362a951461025557806306fdde0314610271578063095ea7b31461029c57806318160ddd146102d9578063181a5db814610304575b600080fd5b61026f600480360381019061026a9190613caf565b610aef565b005b34801561027d57600080fd5b5061028661146a565b6040516102939190613d75565b60405180910390f35b3480156102a857600080fd5b506102c360048036038101906102be9190613dcd565b6114fc565b6040516102d09190613e28565b60405180910390f35b3480156102e557600080fd5b506102ee61151f565b6040516102fb9190613e52565b60405180910390f35b34801561031057600080fd5b5061032b60048036038101906103269190613caf565b611529565b6040516103389190613e28565b60405180910390f35b34801561034d57600080fd5b5061036860048036038101906103639190613e6d565b61165a565b6040516103759190613e28565b60405180910390f35b34801561038a57600080fd5b506103a560048036038101906103a09190613caf565b611689565b6040516103b29190613e52565b60405180910390f35b3480156103c757600080fd5b506103e260048036038101906103dd9190613caf565b611741565b6040516103ef9190613f20565b60405180910390f35b34801561040457600080fd5b5061040d611874565b60405161041a9190613e52565b60405180910390f35b34801561042f57600080fd5b5061043861189c565b6040516104459190613f57565b60405180910390f35b34801561045a57600080fd5b506104636118a5565b6040516104709190614063565b60405180910390f35b34801561048557600080fd5b506104a0600480360381019061049b9190613caf565b61196e565b6040516104ad9190613e28565b60405180910390f35b3480156104c257600080fd5b506104dd60048036038101906104d89190613caf565b611a33565b6040516104ed9493929190614094565b60405180910390f35b34801561050257600080fd5b5061051d60048036038101906105189190613dcd565b611c8b565b60405161052a9190613e28565b60405180910390f35b34801561053f57600080fd5b5061055a6004803603810190610555919061421c565b611cc2565b005b34801561056857600080fd5b5061057161208b565b60405161057e9190613e52565b60405180910390f35b34801561059357600080fd5b506105ae60048036038101906105a99190613caf565b61211a565b6040516105bb9190613e52565b60405180910390f35b3480156105d057600080fd5b506105d96121d2565b6040516105e69190614356565b60405180910390f35b3480156105fb57600080fd5b5061061660048036038101906106119190613caf565b612260565b6040516106239190613e52565b60405180910390f35b34801561063857600080fd5b50610641612320565b60405161064e9190613e52565b60405180910390f35b34801561066357600080fd5b5061067e60048036038101906106799190613caf565b6123ad565b60405161068b9190613e52565b60405180910390f35b3480156106a057600080fd5b506106bb60048036038101906106b69190613caf565b6123f5565b6040516106c89190613e28565b60405180910390f35b3480156106dd57600080fd5b506106e66124ba565b6040516106f39190614378565b60405180910390f35b34801561070857600080fd5b50610723600480360381019061071e9190614393565b612567565b6040516107309190614378565b60405180910390f35b34801561074557600080fd5b50610760600480360381019061075b9190613caf565b6125af565b60405161076d9190613e52565b60405180910390f35b34801561078257600080fd5b5061079d60048036038101906107989190613caf565b6126ed565b6040516107aa9190613e28565b60405180910390f35b3480156107bf57600080fd5b506107c861270d565b6040516107d59190613d75565b60405180910390f35b3480156107ea57600080fd5b5061080560048036038101906108009190614393565b61279f565b6040516108129190614378565b60405180910390f35b34801561082757600080fd5b50610842600480360381019061083d9190613caf565b6127e7565b60405161084f9190613e52565b60405180910390f35b34801561086457600080fd5b5061087f600480360381019061087a9190613dcd565b61289f565b60405161088c9190613e28565b60405180910390f35b3480156108a157600080fd5b506108bc60048036038101906108b79190614393565b612916565b6040516108c99190614378565b60405180910390f35b3480156108de57600080fd5b506108f960048036038101906108f49190613dcd565b612955565b6040516109069190613e28565b60405180910390f35b34801561091b57600080fd5b5061093660048036038101906109319190614393565b612978565b005b34801561094457600080fd5b5061094d612c06565b60405161095a9190613e52565b60405180910390f35b34801561096f57600080fd5b5061098a60048036038101906109859190614393565b612c98565b6040516109979190614378565b60405180910390f35b3480156109ac57600080fd5b506109b5612d5a565b6040516109c29190613e52565b60405180910390f35b3480156109d757600080fd5b506109e0612de9565b6040516109ed9190614356565b60405180910390f35b348015610a0257600080fd5b50610a1d6004803603810190610a1891906143c0565b612e77565b005b348015610a2b57600080fd5b50610a34613350565b604051610a419190613e52565b60405180910390f35b348015610a5657600080fd5b50610a5f61335a565b604051610a6c9190613e52565b60405180910390f35b348015610a8157600080fd5b50610a9c6004803603810190610a979190614413565b6133ec565b604051610aa99190613e52565b60405180910390f35b348015610abe57600080fd5b50610ad96004803603810190610ad49190613caf565b613473565b604051610ae69190613e52565b60405180910390f35b6000606434600a610b009190614482565b610b0a919061450b565b90508060096000828254610b1e919061453c565b9250508190555060005b600680549050811015610bec578273ffffffffffffffffffffffffffffffffffffffff1660068281548110610b6057610b5f614592565b5b9060005260206000200160009054906101000a900473ffffffffffffffffffffffffffffffffffffffff1673ffffffffffffffffffffffffffffffffffffffff161415610bd9576040517f7112214d00000000000000000000000000000000000000000000000000000000815260040160405180910390fd5b8080610be4906145c1565b915050610b28565b50601560008373ffffffffffffffffffffffffffffffffffffffff1673ffffffffffffffffffffffffffffffffffffffff16815260200190815260200160002060009054906101000a900460ff16610c70576040517feb98f21100000000000000000000000000000000000000000000000000000000815260040160405180910390fd5b6006339080600181540180825580915050600190039060005260206000200160009091909190916101000a81548173ffffffffffffffffffffffffffffffffffffffff021916908373ffffffffffffffffffffffffffffffffffffffff16021790555060008134610ce1919061460a565b9050600073ffffffffffffffffffffffffffffffffffffffff163373ffffffffffffffffffffffffffffffffffffffff161415610d4a576040517f28ad44d700000000000000000000000000000000000000000000000000000000815260040160405180910390fd5b8273ffffffffffffffffffffffffffffffffffffffff163373ffffffffffffffffffffffffffffffffffffffff161415610db0576040517f224524ac00000000000000000000000000000000000000000000000000000000815260040160405180910390fd5b600073ffffffffffffffffffffffffffffffffffffffff168373ffffffffffffffffffffffffffffffffffffffff161415610e17576040517f28ad44d700000000000000000000000000000000000000000000000000000000815260040160405180910390fd5b7f0000000000000000000000000000000000000000000000000000000000000000341015610e71576040517fc5271b0200000000000000000000000000000000000000000000000000000000815260040160405180910390fd5b600a6000815480929190610e84906145c1565b91905055503360116000600a54815260200190815260200160002060006101000a81548173ffffffffffffffffffffffffffffffffffffffff021916908373ffffffffffffffffffffffffffffffffffffffff160217905550610f0533610ee961189c565b600a610ef59190614771565b84610f009190614482565b61352b565b34601360003373ffffffffffffffffffffffffffffffffffffffff1673ffffffffffffffffffffffffffffffffffffffff1681526020019081526020016000206000828254610f54919061453c565b92505081905550600a54601260003373ffffffffffffffffffffffffffffffffffffffff1673ffffffffffffffffffffffffffffffffffffffff16815260200190815260200160002081905550610fa961189c565b600a610fb59190614771565b82610fc09190614482565b600d60003373ffffffffffffffffffffffffffffffffffffffff1673ffffffffffffffffffffffffffffffffffffffff168152602001908152602001600020600082825461100e919061453c565b9250508190555080600e60008573ffffffffffffffffffffffffffffffffffffffff1673ffffffffffffffffffffffffffffffffffffffff1681526020019081526020016000206000828254611064919061453c565b9250508190555061107361189c565b600a61107f9190614771565b8261108a9190614482565b34611095919061453c565b600c60003373ffffffffffffffffffffffffffffffffffffffff1673ffffffffffffffffffffffffffffffffffffffff16815260200190815260200160002060008282546110e3919061453c565b925050819055506001600f60003373ffffffffffffffffffffffffffffffffffffffff1673ffffffffffffffffffffffffffffffffffffffff16815260200190815260200160002060006101000a81548160ff02191690831515021790555060405180606001604052803373ffffffffffffffffffffffffffffffffffffffff16815260200134815260200183815250601060003373ffffffffffffffffffffffffffffffffffffffff1673ffffffffffffffffffffffffffffffffffffffff16815260200190815260200160002060008201518160000160006101000a81548173ffffffffffffffffffffffffffffffffffffffff021916908373ffffffffffffffffffffffffffffffffffffffff1602179055506020820151816001015560408201518160020155905050600860405180606001604052803373ffffffffffffffffffffffffffffffffffffffff16815260200134815260200184815250908060018154018082558091505060019003906000526020600020906003020160009091909190915060008201518160000160006101000a81548173ffffffffffffffffffffffffffffffffffffffff021916908373ffffffffffffffffffffffffffffffffffffffff16021790555060208201518160010155604082015181600201555050600073ffffffffffffffffffffffffffffffffffffffff168373ffffffffffffffffffffffffffffffffffffffff161415611339576040517f08c379a000000000000000000000000000000000000000000000000000000000815260040161133090614808565b60405180910390fd5b60008373ffffffffffffffffffffffffffffffffffffffff168260405161135f90614859565b60006040518083038185875af1925050503d806000811461139c576040519150601f19603f3d011682016040523d82523d6000602084013e6113a1565b606091505b50509050806113e5576040517f08c379a00000000000000000000000000000000000000000000000000000000081526004016113dc906148ba565b60405180910390fd5b600b60008154809291906113f8906145c1565b91905055508373ffffffffffffffffffffffffffffffffffffffff163373ffffffffffffffffffffffffffffffffffffffff167f4322cf7bb5bdb39c0e2ffb7af737e3569d51766de459df25281823ffa30b4685858560405161145c9291906148da565b60405180910390a350505050565b60606003805461147990614932565b80601f01602080910402602001604051908101604052809291908181526020018280546114a590614932565b80156114f25780601f106114c7576101008083540402835291602001916114f2565b820191906000526020600020905b8154815290600101906020018083116114d557829003601f168201915b5050505050905090565b600080611507613682565b905061151481858561368a565b600191505092915050565b6000600254905090565b60003373ffffffffffffffffffffffffffffffffffffffff167f000000000000000000000000000000000000000000000000000000000000000073ffffffffffffffffffffffffffffffffffffffff16146115b0576040517f8f846ea600000000000000000000000000000000000000000000000000000000815260040160405180910390fd5b60005b60058054905081101561164f578273ffffffffffffffffffffffffffffffffffffffff16600582815481106115eb576115ea614592565b5b9060005260206000200160009054906101000a900473ffffffffffffffffffffffffffffffffffffffff1673ffffffffffffffffffffffffffffffffffffffff16141561163c576001915050611655565b8080611647906145c1565b9150506115b3565b50600090505b919050565b600080611665613682565b9050611672858285613855565b61167d8585856138e1565b60019150509392505050565b60008073ffffffffffffffffffffffffffffffffffffffff168273ffffffffffffffffffffffffffffffffffffffff1614156116fa576040517f08c379a00000000000000000000000000000000000000000000000000000000081526004016116f190614808565b60405180910390fd5b600c60008373ffffffffffffffffffffffffffffffffffffffff1673ffffffffffffffffffffffffffffffffffffffff168152602001908152602001600020549050919050565b611749613b63565b600073ffffffffffffffffffffffffffffffffffffffff168273ffffffffffffffffffffffffffffffffffffffff1614156117b9576040517f08c379a00000000000000000000000000000000000000000000000000000000081526004016117b090614808565b60405180910390fd5b601060008373ffffffffffffffffffffffffffffffffffffffff1673ffffffffffffffffffffffffffffffffffffffff1681526020019081526020016000206040518060600160405290816000820160009054906101000a900473ffffffffffffffffffffffffffffffffffffffff1673ffffffffffffffffffffffffffffffffffffffff1673ffffffffffffffffffffffffffffffffffffffff168152602001600182015481526020016002820154815250509050919050565b60007f0000000000000000000000000000000000000000000000000000000000000000905090565b60006012905090565b60606008805480602002602001604051908101604052809291908181526020016000905b8282101561196557838290600052602060002090600302016040518060600160405290816000820160009054906101000a900473ffffffffffffffffffffffffffffffffffffffff1673ffffffffffffffffffffffffffffffffffffffff1673ffffffffffffffffffffffffffffffffffffffff16815260200160018201548152602001600282015481525050815260200190600101906118c9565b50505050905090565b60008073ffffffffffffffffffffffffffffffffffffffff168273ffffffffffffffffffffffffffffffffffffffff1614156119df576040517f08c379a00000000000000000000000000000000000000000000000000000000081526004016119d690614808565b60405180910390fd5b601560008373ffffffffffffffffffffffffffffffffffffffff1673ffffffffffffffffffffffffffffffffffffffff16815260200190815260200160002060009054906101000a900460ff169050919050565b60006060806000601460008673ffffffffffffffffffffffffffffffffffffffff1673ffffffffffffffffffffffffffffffffffffffff16815260200190815260200160002060000160009054906101000a900473ffffffffffffffffffffffffffffffffffffffff16601460008773ffffffffffffffffffffffffffffffffffffffff1673ffffffffffffffffffffffffffffffffffffffff168152602001908152602001600020600101601460008873ffffffffffffffffffffffffffffffffffffffff1673ffffffffffffffffffffffffffffffffffffffff168152602001908152602001600020600201601460008973ffffffffffffffffffffffffffffffffffffffff1673ffffffffffffffffffffffffffffffffffffffff16815260200190815260200160002060030154828054611b7090614932565b80601f0160208091040260200160405190810160405280929190818152602001828054611b9c90614932565b8015611be95780601f10611bbe57610100808354040283529160200191611be9565b820191906000526020600020905b815481529060010190602001808311611bcc57829003601f168201915b50505050509250818054611bfc90614932565b80601f0160208091040260200160405190810160405280929190818152602001828054611c2890614932565b8015611c755780601f10611c4a57610100808354040283529160200191611c75565b820191906000526020600020905b815481529060010190602001808311611c5857829003601f168201915b5050505050915093509350935093509193509193565b600080611c96613682565b9050611cb7818585611ca885896133ec565b611cb2919061453c565b61368a565b600191505092915050565b3373ffffffffffffffffffffffffffffffffffffffff167f000000000000000000000000000000000000000000000000000000000000000073ffffffffffffffffffffffffffffffffffffffff1614611d47576040517f8f846ea600000000000000000000000000000000000000000000000000000000815260040160405180910390fd5b60005b600580549050811015611e0e578373ffffffffffffffffffffffffffffffffffffffff1660058281548110611d8257611d81614592565b5b9060005260206000200160009054906101000a900473ffffffffffffffffffffffffffffffffffffffff1673ffffffffffffffffffffffffffffffffffffffff161415611dfb576040517f6ab2ab0500000000000000000000000000000000000000000000000000000000815260040160405180910390fd5b8080611e06906145c1565b915050611d4a565b50600073ffffffffffffffffffffffffffffffffffffffff168373ffffffffffffffffffffffffffffffffffffffff161415611e76576040517f28ad44d700000000000000000000000000000000000000000000000000000000815260040160405180910390fd5b60008251111580611e8957506000815111155b15611ec0576040517fc348b49c00000000000000000000000000000000000000000000000000000000815260040160405180910390fd5b600060405180608001604052808573ffffffffffffffffffffffffffffffffffffffff1681526020018481526020018381526020016000815250905080601460008673ffffffffffffffffffffffffffffffffffffffff1673ffffffffffffffffffffffffffffffffffffffff16815260200190815260200160002060008201518160000160006101000a81548173ffffffffffffffffffffffffffffffffffffffff021916908373ffffffffffffffffffffffffffffffffffffffff1602179055506020820151816001019080519060200190611f9f929190613b9a565b506040820151816002019080519060200190611fbc929190613b9a565b50606082015181600301559050506005849080600181540180825580915050600190039060005260206000200160009091909190916101000a81548173ffffffffffffffffffffffffffffffffffffffff021916908373ffffffffffffffffffffffffffffffffffffffff1602179055506001601560008673ffffffffffffffffffffffffffffffffffffffff1673ffffffffffffffffffffffffffffffffffffffff16815260200190815260200160002060006101000a81548160ff02191690831515021790555050505050565b60003373ffffffffffffffffffffffffffffffffffffffff167f000000000000000000000000000000000000000000000000000000000000000073ffffffffffffffffffffffffffffffffffffffff1614612112576040517f8f846ea600000000000000000000000000000000000000000000000000000000815260040160405180910390fd5b600954905090565b60008073ffffffffffffffffffffffffffffffffffffffff168273ffffffffffffffffffffffffffffffffffffffff16141561218b576040517f08c379a000000000000000000000000000000000000000000000000000000000815260040161218290614808565b60405180910390fd5b600d60008373ffffffffffffffffffffffffffffffffffffffff1673ffffffffffffffffffffffffffffffffffffffff168152602001908152602001600020549050919050565b6060600680548060200260200160405190810160405280929190818152602001828054801561225657602002820191906000526020600020905b8160009054906101000a900473ffffffffffffffffffffffffffffffffffffffff1673ffffffffffffffffffffffffffffffffffffffff168152602001906001019080831161220c575b5050505050905090565b60008073ffffffffffffffffffffffffffffffffffffffff168273ffffffffffffffffffffffffffffffffffffffff1614156122d1576040517f08c379a00000000000000000000000000000000000000000000000000000000081526004016122c890614808565b60405180910390fd5b60006122dc836123ad565b905060006122e861189c565b60ff169050600081600a6122fc9190614964565b6001846123099190614482565b612313919061450b565b9050809350505050919050565b60003373ffffffffffffffffffffffffffffffffffffffff167f000000000000000000000000000000000000000000000000000000000000000073ffffffffffffffffffffffffffffffffffffffff16146123a7576040517f8f846ea600000000000000000000000000000000000000000000000000000000815260040160405180910390fd5b47905090565b60008060008373ffffffffffffffffffffffffffffffffffffffff1673ffffffffffffffffffffffffffffffffffffffff168152602001908152602001600020549050919050565b60008073ffffffffffffffffffffffffffffffffffffffff168273ffffffffffffffffffffffffffffffffffffffff161415612466576040517f08c379a000000000000000000000000000000000000000000000000000000000815260040161245d90614808565b60405180910390fd5b600f60008373ffffffffffffffffffffffffffffffffffffffff1673ffffffffffffffffffffffffffffffffffffffff16815260200190815260200160002060009054906101000a900460ff169050919050565b60003373ffffffffffffffffffffffffffffffffffffffff167f000000000000000000000000000000000000000000000000000000000000000073ffffffffffffffffffffffffffffffffffffffff1614612541576040517f8f846ea600000000000000000000000000000000000000000000000000000000815260040160405180910390fd5b7f0000000000000000000000000000000000000000000000000000000000000000905090565b60006005828154811061257d5761257c614592565b5b9060005260206000200160009054906101000a900473ffffffffffffffffffffffffffffffffffffffff169050919050565b60003373ffffffffffffffffffffffffffffffffffffffff167f000000000000000000000000000000000000000000000000000000000000000073ffffffffffffffffffffffffffffffffffffffff1614612636576040517f8f846ea600000000000000000000000000000000000000000000000000000000815260040160405180910390fd5b600073ffffffffffffffffffffffffffffffffffffffff168273ffffffffffffffffffffffffffffffffffffffff1614156126a6576040517f08c379a000000000000000000000000000000000000000000000000000000000815260040161269d90614808565b60405180910390fd5b601260008373ffffffffffffffffffffffffffffffffffffffff1673ffffffffffffffffffffffffffffffffffffffff168152602001908152602001600020549050919050565b60156020528060005260406000206000915054906101000a900460ff1681565b60606004805461271c90614932565b80601f016020809104026020016040519081016040528092919081815260200182805461274890614932565b80156127955780601f1061276a57610100808354040283529160200191612795565b820191906000526020600020905b81548152906001019060200180831161277857829003601f168201915b5050505050905090565b6000600682815481106127b5576127b4614592565b5b9060005260206000200160009054906101000a900473ffffffffffffffffffffffffffffffffffffffff169050919050565b60008073ffffffffffffffffffffffffffffffffffffffff168273ffffffffffffffffffffffffffffffffffffffff161415612858576040517f08c379a000000000000000000000000000000000000000000000000000000000815260040161284f90614808565b60405180910390fd5b601360008373ffffffffffffffffffffffffffffffffffffffff1673ffffffffffffffffffffffffffffffffffffffff168152602001908152602001600020549050919050565b6000806128aa613682565b905060006128b882866133ec565b9050838110156128fd576040517f08c379a00000000000000000000000000000000000000000000000000000000081526004016128f490614a21565b60405180910390fd5b61290a828686840361368a565b60019250505092915050565b6007818154811061292657600080fd5b906000526020600020016000915054906101000a900473ffffffffffffffffffffffffffffffffffffffff1681565b600080612960613682565b905061296d8185856138e1565b600191505092915050565b3373ffffffffffffffffffffffffffffffffffffffff167f000000000000000000000000000000000000000000000000000000000000000073ffffffffffffffffffffffffffffffffffffffff16146129fd576040517f8f846ea600000000000000000000000000000000000000000000000000000000815260040160405180910390fd5b600081111580612a0c57504781115b15612a43576040517f2f88b7c900000000000000000000000000000000000000000000000000000000815260040160405180910390fd5b600073ffffffffffffffffffffffffffffffffffffffff167f000000000000000000000000000000000000000000000000000000000000000073ffffffffffffffffffffffffffffffffffffffff161415612ad3576040517f08c379a0000000000000000000000000000000000000000000000000000000008152600401612aca90614808565b60405180910390fd5b60007f000000000000000000000000000000000000000000000000000000000000000073ffffffffffffffffffffffffffffffffffffffff1682604051612b1990614859565b60006040518083038185875af1925050503d8060008114612b56576040519150601f19603f3d011682016040523d82523d6000602084013e612b5b565b606091505b5050905080612b9f576040517f08c379a0000000000000000000000000000000000000000000000000000000008152600401612b96906148ba565b60405180910390fd5b7f000000000000000000000000000000000000000000000000000000000000000073ffffffffffffffffffffffffffffffffffffffff167f79638a39ae9067c385777343e09e673681ff834cf7d9f7e68a276690a3cf552a60405160405180910390a25050565b60003373ffffffffffffffffffffffffffffffffffffffff167f000000000000000000000000000000000000000000000000000000000000000073ffffffffffffffffffffffffffffffffffffffff1614612c8d576040517f8f846ea600000000000000000000000000000000000000000000000000000000815260040160405180910390fd5b600680549050905090565b60003373ffffffffffffffffffffffffffffffffffffffff167f000000000000000000000000000000000000000000000000000000000000000073ffffffffffffffffffffffffffffffffffffffff1614612d1f576040517f8f846ea600000000000000000000000000000000000000000000000000000000815260040160405180910390fd5b6011600083815260200190815260200160002060009054906101000a900473ffffffffffffffffffffffffffffffffffffffff169050919050565b60003373ffffffffffffffffffffffffffffffffffffffff167f000000000000000000000000000000000000000000000000000000000000000073ffffffffffffffffffffffffffffffffffffffff1614612de1576040517f8f846ea600000000000000000000000000000000000000000000000000000000815260040160405180910390fd5b600b54905090565b60606005805480602002602001604051908101604052809291908181526020018280548015612e6d57602002820191906000526020600020905b8160009054906101000a900473ffffffffffffffffffffffffffffffffffffffff1673ffffffffffffffffffffffffffffffffffffffff1681526020019060010190808311612e23575b5050505050905090565b600073ffffffffffffffffffffffffffffffffffffffff168373ffffffffffffffffffffffffffffffffffffffff161415612ede576040517f28ad44d700000000000000000000000000000000000000000000000000000000815260040160405180910390fd5b60008211612f18576040517f9bffd8a600000000000000000000000000000000000000000000000000000000815260040160405180910390fd5b81612f2284613473565b1015612f5a576040517f2f88b7c900000000000000000000000000000000000000000000000000000000815260040160405180910390fd5b600073ffffffffffffffffffffffffffffffffffffffff168173ffffffffffffffffffffffffffffffffffffffff161415612fc1576040517f28ad44d700000000000000000000000000000000000000000000000000000000815260040160405180910390fd5b8273ffffffffffffffffffffffffffffffffffffffff168173ffffffffffffffffffffffffffffffffffffffff161415613027576040517f28ad44d700000000000000000000000000000000000000000000000000000000815260040160405180910390fd5b60005b600680549050811015613162578373ffffffffffffffffffffffffffffffffffffffff166006828154811061306257613061614592565b5b9060005260206000200160009054906101000a900473ffffffffffffffffffffffffffffffffffffffff1673ffffffffffffffffffffffffffffffffffffffff16148061311857508173ffffffffffffffffffffffffffffffffffffffff16600682815481106130d5576130d4614592565b5b9060005260206000200160009054906101000a900473ffffffffffffffffffffffffffffffffffffffff1673ffffffffffffffffffffffffffffffffffffffff16145b1561314f576040517f28ad44d700000000000000000000000000000000000000000000000000000000815260040160405180910390fd5b808061315a906145c1565b91505061302a565b5060005b60058054905081101561322a578173ffffffffffffffffffffffffffffffffffffffff166005828154811061319e5761319d614592565b5b9060005260206000200160009054906101000a900473ffffffffffffffffffffffffffffffffffffffff1673ffffffffffffffffffffffffffffffffffffffff161415613217576040517f28ad44d700000000000000000000000000000000000000000000000000000000815260040160405180910390fd5b8080613222906145c1565b915050613166565b5061323483611529565b156132e65781600e60008573ffffffffffffffffffffffffffffffffffffffff1673ffffffffffffffffffffffffffffffffffffffff1681526020019081526020016000206000828254613288919061460a565b9250508190555081600e60008373ffffffffffffffffffffffffffffffffffffffff1673ffffffffffffffffffffffffffffffffffffffff16815260200190815260200160002060008282546132de919061453c565b925050819055505b8073ffffffffffffffffffffffffffffffffffffffff168373ffffffffffffffffffffffffffffffffffffffff167f54e2a988033d0ee4de2bd19e6705d5e22e54e7b257aa662519150c8fafc8ef28846040516133439190613e52565b60405180910390a3505050565b6000600b54905090565b60003373ffffffffffffffffffffffffffffffffffffffff167f000000000000000000000000000000000000000000000000000000000000000073ffffffffffffffffffffffffffffffffffffffff16146133e1576040517f8f846ea600000000000000000000000000000000000000000000000000000000815260040160405180910390fd5b600580549050905090565b6000600160008473ffffffffffffffffffffffffffffffffffffffff1673ffffffffffffffffffffffffffffffffffffffff16815260200190815260200160002060008373ffffffffffffffffffffffffffffffffffffffff1673ffffffffffffffffffffffffffffffffffffffff16815260200190815260200160002054905092915050565b60008073ffffffffffffffffffffffffffffffffffffffff168273ffffffffffffffffffffffffffffffffffffffff1614156134e4576040517f08c379a00000000000000000000000000000000000000000000000000000000081526004016134db90614808565b60405180910390fd5b600e60008373ffffffffffffffffffffffffffffffffffffffff1673ffffffffffffffffffffffffffffffffffffffff168152602001908152602001600020549050919050565b600073ffffffffffffffffffffffffffffffffffffffff168273ffffffffffffffffffffffffffffffffffffffff16141561359b576040517f08c379a000000000000000000000000000000000000000000000000000000000815260040161359290614a8d565b60405180910390fd5b6135a760008383613b59565b80600260008282546135b9919061453c565b92505081905550806000808473ffffffffffffffffffffffffffffffffffffffff1673ffffffffffffffffffffffffffffffffffffffff168152602001908152602001600020600082825401925050819055508173ffffffffffffffffffffffffffffffffffffffff16600073ffffffffffffffffffffffffffffffffffffffff167fddf252ad1be2c89b69c2b068fc378daa952ba7f163c4a11628f55a4df523b3ef8360405161366a9190613e52565b60405180910390a361367e60008383613b5e565b5050565b600033905090565b600073ffffffffffffffffffffffffffffffffffffffff168373ffffffffffffffffffffffffffffffffffffffff1614156136fa576040517f08c379a00000000000000000000000000000000000000000000000000000000081526004016136f190614b1f565b60405180910390fd5b600073ffffffffffffffffffffffffffffffffffffffff168273ffffffffffffffffffffffffffffffffffffffff16141561376a576040517f08c379a000000000000000000000000000000000000000000000000000000000815260040161376190614bb1565b60405180910390fd5b80600160008573ffffffffffffffffffffffffffffffffffffffff1673ffffffffffffffffffffffffffffffffffffffff16815260200190815260200160002060008473ffffffffffffffffffffffffffffffffffffffff1673ffffffffffffffffffffffffffffffffffffffff168152602001908152602001600020819055508173ffffffffffffffffffffffffffffffffffffffff168373ffffffffffffffffffffffffffffffffffffffff167f8c5be1e5ebec7d5bd14f71427d1e84f3dd0314c0f7b2291e5b200ac8c7c3b925836040516138489190613e52565b60405180910390a3505050565b600061386184846133ec565b90507fffffffffffffffffffffffffffffffffffffffffffffffffffffffffffffffff81146138db57818110156138cd576040517f08c379a00000000000000000000000000000000000000000000000000000000081526004016138c490614c1d565b60405180910390fd5b6138da848484840361368a565b5b50505050565b600073ffffffffffffffffffffffffffffffffffffffff168373ffffffffffffffffffffffffffffffffffffffff161415613951576040517f08c379a000000000000000000000000000000000000000000000000000000000815260040161394890614caf565b60405180910390fd5b600073ffffffffffffffffffffffffffffffffffffffff168273ffffffffffffffffffffffffffffffffffffffff1614156139c1576040517f08c379a00000000000000000000000000000000000000000000000000000000081526004016139b890614d41565b60405180910390fd5b6139cc838383613b59565b60008060008573ffffffffffffffffffffffffffffffffffffffff1673ffffffffffffffffffffffffffffffffffffffff16815260200190815260200160002054905081811015613a52576040517f08c379a0000000000000000000000000000000000000000000000000000000008152600401613a4990614dd3565b60405180910390fd5b8181036000808673ffffffffffffffffffffffffffffffffffffffff1673ffffffffffffffffffffffffffffffffffffffff16815260200190815260200160002081905550816000808573ffffffffffffffffffffffffffffffffffffffff1673ffffffffffffffffffffffffffffffffffffffff168152602001908152602001600020600082825401925050819055508273ffffffffffffffffffffffffffffffffffffffff168473ffffffffffffffffffffffffffffffffffffffff167fddf252ad1be2c89b69c2b068fc378daa952ba7f163c4a11628f55a4df523b3ef84604051613b409190613e52565b60405180910390a3613b53848484613b5e565b50505050565b505050565b505050565b6040518060600160405280600073ffffffffffffffffffffffffffffffffffffffff16815260200160008152602001600081525090565b828054613ba690614932565b90600052602060002090601f016020900481019282613bc85760008555613c0f565b82601f10613be157805160ff1916838001178555613c0f565b82800160010185558215613c0f579182015b82811115613c0e578251825591602001919060010190613bf3565b5b509050613c1c9190613c20565b5090565b5b80821115613c39576000816000905550600101613c21565b5090565b6000604051905090565b600080fd5b600080fd5b600073ffffffffffffffffffffffffffffffffffffffff82169050919050565b6000613c7c82613c51565b9050919050565b613c8c81613c71565b8114613c9757600080fd5b50565b600081359050613ca981613c83565b92915050565b600060208284031215613cc557613cc4613c47565b5b6000613cd384828501613c9a565b91505092915050565b600081519050919050565b600082825260208201905092915050565b60005b83811015613d16578082015181840152602081019050613cfb565b83811115613d25576000848401525b50505050565b6000601f19601f8301169050919050565b6000613d4782613cdc565b613d518185613ce7565b9350613d61818560208601613cf8565b613d6a81613d2b565b840191505092915050565b60006020820190508181036000830152613d8f8184613d3c565b905092915050565b6000819050919050565b613daa81613d97565b8114613db557600080fd5b50565b600081359050613dc781613da1565b92915050565b60008060408385031215613de457613de3613c47565b5b6000613df285828601613c9a565b9250506020613e0385828601613db8565b9150509250929050565b60008115159050919050565b613e2281613e0d565b82525050565b6000602082019050613e3d6000830184613e19565b92915050565b613e4c81613d97565b82525050565b6000602082019050613e676000830184613e43565b92915050565b600080600060608486031215613e8657613e85613c47565b5b6000613e9486828701613c9a565b9350506020613ea586828701613c9a565b9250506040613eb686828701613db8565b9150509250925092565b613ec981613c71565b82525050565b613ed881613d97565b82525050565b606082016000820151613ef46000850182613ec0565b506020820151613f076020850182613ecf565b506040820151613f1a6040850182613ecf565b50505050565b6000606082019050613f356000830184613ede565b92915050565b600060ff82169050919050565b613f5181613f3b565b82525050565b6000602082019050613f6c6000830184613f48565b92915050565b600081519050919050565b600082825260208201905092915050565b6000819050602082019050919050565b606082016000820151613fb46000850182613ec0565b506020820151613fc76020850182613ecf565b506040820151613fda6040850182613ecf565b50505050565b6000613fec8383613f9e565b60608301905092915050565b6000602082019050919050565b600061401082613f72565b61401a8185613f7d565b935061402583613f8e565b8060005b8381101561405657815161403d8882613fe0565b975061404883613ff8565b925050600181019050614029565b5085935050505092915050565b6000602082019050818103600083015261407d8184614005565b905092915050565b61408e81613c71565b82525050565b60006080820190506140a96000830187614085565b81810360208301526140bb8186613d3c565b905081810360408301526140cf8185613d3c565b90506140de6060830184613e43565b95945050505050565b600080fd5b600080fd5b7f4e487b7100000000000000000000000000000000000000000000000000000000600052604160045260246000fd5b61412982613d2b565b810181811067ffffffffffffffff82111715614148576141476140f1565b5b80604052505050565b600061415b613c3d565b90506141678282614120565b919050565b600067ffffffffffffffff821115614187576141866140f1565b5b61419082613d2b565b9050602081019050919050565b82818337600083830152505050565b60006141bf6141ba8461416c565b614151565b9050828152602081018484840111156141db576141da6140ec565b5b6141e684828561419d565b509392505050565b600082601f830112614203576142026140e7565b5b81356142138482602086016141ac565b91505092915050565b60008060006060848603121561423557614234613c47565b5b600061424386828701613c9a565b935050602084013567ffffffffffffffff81111561426457614263613c4c565b5b614270868287016141ee565b925050604084013567ffffffffffffffff81111561429157614290613c4c565b5b61429d868287016141ee565b9150509250925092565b600081519050919050565b600082825260208201905092915050565b6000819050602082019050919050565b60006142df8383613ec0565b60208301905092915050565b6000602082019050919050565b6000614303826142a7565b61430d81856142b2565b9350614318836142c3565b8060005b8381101561434957815161433088826142d3565b975061433b836142eb565b92505060018101905061431c565b5085935050505092915050565b6000602082019050818103600083015261437081846142f8565b905092915050565b600060208201905061438d6000830184614085565b92915050565b6000602082840312156143a9576143a8613c47565b5b60006143b784828501613db8565b91505092915050565b6000806000606084860312156143d9576143d8613c47565b5b60006143e786828701613c9a565b93505060206143f886828701613db8565b925050604061440986828701613c9a565b9150509250925092565b6000806040838503121561442a57614429613c47565b5b600061443885828601613c9a565b925050602061444985828601613c9a565b9150509250929050565b7f4e487b7100000000000000000000000000000000000000000000000000000000600052601160045260246000fd5b600061448d82613d97565b915061449883613d97565b9250817fffffffffffffffffffffffffffffffffffffffffffffffffffffffffffffffff04831182151516156144d1576144d0614453565b5b828202905092915050565b7f4e487b7100000000000000000000000000000000000000000000000000000000600052601260045260246000fd5b600061451682613d97565b915061452183613d97565b925082614531576145306144dc565b5b828204905092915050565b600061454782613d97565b915061455283613d97565b9250827fffffffffffffffffffffffffffffffffffffffffffffffffffffffffffffffff0382111561458757614586614453565b5b828201905092915050565b7f4e487b7100000000000000000000000000000000000000000000000000000000600052603260045260246000fd5b60006145cc82613d97565b91507fffffffffffffffffffffffffffffffffffffffffffffffffffffffffffffffff8214156145ff576145fe614453565b5b600182019050919050565b600061461582613d97565b915061462083613d97565b92508282101561463357614632614453565b5b828203905092915050565b60008160011c9050919050565b6000808291508390505b60018511156146955780860481111561467157614670614453565b5b60018516156146805780820291505b808102905061468e8561463e565b9450614655565b94509492505050565b6000826146ae576001905061476a565b816146bc576000905061476a565b81600181146146d257600281146146dc5761470b565b600191505061476a565b60ff8411156146ee576146ed614453565b5b8360020a91508482111561470557614704614453565b5b5061476a565b5060208310610133831016604e8410600b84101617156147405782820a90508381111561473b5761473a614453565b5b61476a565b61474d848484600161464b565b9250905081840481111561476457614763614453565b5b81810290505b9392505050565b600061477c82613d97565b915061478783613f3b565b92506147b47fffffffffffffffffffffffffffffffffffffffffffffffffffffffffffffffff848461469e565b905092915050565b7f706c656173652075736520612076616c69642061646472657373000000000000600082015250565b60006147f2601a83613ce7565b91506147fd826147bc565b602082019050919050565b60006020820190508181036000830152614821816147e5565b9050919050565b600081905092915050565b50565b6000614843600083614828565b915061484e82614833565b600082019050919050565b600061486482614836565b9150819050919050565b7f5472616e73616374696f6e206661696c656420746f2065786563757465000000600082015250565b60006148a4601d83613ce7565b91506148af8261486e565b602082019050919050565b600060208201905081810360008301526148d381614897565b9050919050565b60006040820190506148ef6000830185613e43565b6148fc6020830184613e43565b9392505050565b7f4e487b7100000000000000000000000000000000000000000000000000000000600052602260045260246000fd5b6000600282049050600182168061494a57607f821691505b6020821081141561495e5761495d614903565b5b50919050565b600061496f82613d97565b915061497a83613d97565b92506149a77fffffffffffffffffffffffffffffffffffffffffffffffffffffffffffffffff848461469e565b905092915050565b7f45524332303a2064656372656173656420616c6c6f77616e63652062656c6f7760008201527f207a65726f000000000000000000000000000000000000000000000000000000602082015250565b6000614a0b602583613ce7565b9150614a16826149af565b604082019050919050565b60006020820190508181036000830152614a3a816149fe565b9050919050565b7f45524332303a206d696e7420746f20746865207a65726f206164647265737300600082015250565b6000614a77601f83613ce7565b9150614a8282614a41565b602082019050919050565b60006020820190508181036000830152614aa681614a6a565b9050919050565b7f45524332303a20617070726f76652066726f6d20746865207a65726f2061646460008201527f7265737300000000000000000000000000000000000000000000000000000000602082015250565b6000614b09602483613ce7565b9150614b1482614aad565b604082019050919050565b60006020820190508181036000830152614b3881614afc565b9050919050565b7f45524332303a20617070726f766520746f20746865207a65726f20616464726560008201527f7373000000000000000000000000000000000000000000000000000000000000602082015250565b6000614b9b602283613ce7565b9150614ba682614b3f565b604082019050919050565b60006020820190508181036000830152614bca81614b8e565b9050919050565b7f45524332303a20696e73756666696369656e7420616c6c6f77616e6365000000600082015250565b6000614c07601d83613ce7565b9150614c1282614bd1565b602082019050919050565b60006020820190508181036000830152614c3681614bfa565b9050919050565b7f45524332303a207472616e736665722066726f6d20746865207a65726f20616460008201527f6472657373000000000000000000000000000000000000000000000000000000602082015250565b6000614c99602583613ce7565b9150614ca482614c3d565b604082019050919050565b60006020820190508181036000830152614cc881614c8c565b9050919050565b7f45524332303a207472616e7366657220746f20746865207a65726f206164647260008201527f6573730000000000000000000000000000000000000000000000000000000000602082015250565b6000614d2b602383613ce7565b9150614d3682614ccf565b604082019050919050565b60006020820190508181036000830152614d5a81614d1e565b9050919050565b7f45524332303a207472616e7366657220616d6f756e742065786365656473206260008201527f616c616e63650000000000000000000000000000000000000000000000000000602082015250565b6000614dbd602683613ce7565b9150614dc882614d61565b604082019050919050565b60006020820190508181036000830152614dec81614db0565b905091905056fea2646970667358221220083d05e442b6a8c806ddb9bd596ca5861eec1fcb64e99bc5d56f299af0427ba164736f6c63430008090033",
 "linkReferences": {},
 "deployedLinkReferences": {}
}